{
  "contractName": "ERC20_Token_Sale_Contract",
  "abi": [
    {
      "inputs": [
        {
          "internalType": "contract IERC20",
          "name": "_instanceAddress",
          "type": "address"
        }
      ],
      "stateMutability": "nonpayable",
      "type": "constructor"
    },
    {
      "anonymous": false,
      "inputs": [
        {
          "indexed": false,
          "internalType": "uint256",
          "name": "_amount",
          "type": "uint256"
        },
        {
          "indexed": false,
          "internalType": "address",
          "name": "_buyer",
          "type": "address"
        }
      ],
      "name": "Bought",
      "type": "event"
    },
    {
      "anonymous": false,
      "inputs": [
        {
          "indexed": true,
          "internalType": "address",
          "name": "previousOwner",
          "type": "address"
        },
        {
          "indexed": true,
          "internalType": "address",
          "name": "newOwner",
          "type": "address"
        }
      ],
      "name": "OwnershipTransferred",
      "type": "event"
    },
    {
      "inputs": [],
      "name": "owner",
      "outputs": [
        {
          "internalType": "address",
          "name": "",
          "type": "address"
        }
      ],
      "stateMutability": "view",
      "type": "function",
      "constant": true
    },
    {
      "inputs": [],
      "name": "renounceOwnership",
      "outputs": [],
      "stateMutability": "nonpayable",
      "type": "function"
    },
    {
      "inputs": [
        {
          "internalType": "address",
          "name": "newOwner",
          "type": "address"
        }
      ],
      "name": "transferOwnership",
      "outputs": [],
      "stateMutability": "nonpayable",
      "type": "function"
    },
    {
      "stateMutability": "payable",
      "type": "receive",
      "payable": true
    },
    {
      "inputs": [],
      "name": "token",
      "outputs": [
        {
          "internalType": "contract IERC20",
          "name": "",
          "type": "address"
        }
      ],
      "stateMutability": "view",
      "type": "function",
      "constant": true
    },
    {
      "inputs": [],
      "name": "buy",
      "outputs": [],
      "stateMutability": "payable",
      "type": "function",
      "payable": true
    },
    {
      "inputs": [],
      "name": "getBalance",
      "outputs": [
        {
          "internalType": "uint256",
          "name": "",
          "type": "uint256"
        }
      ],
      "stateMutability": "view",
      "type": "function",
      "constant": true
    },
    {
      "inputs": [],
      "name": "amountOfEtherRaied",
      "outputs": [
        {
          "internalType": "uint256",
          "name": "",
          "type": "uint256"
        }
      ],
      "stateMutability": "view",
      "type": "function",
      "constant": true
    },
    {
      "inputs": [
        {
          "internalType": "uint256",
          "name": "_amount",
          "type": "uint256"
        },
        {
          "internalType": "address payable",
          "name": "_receipient",
          "type": "address"
        }
      ],
      "name": "withdrawEther",
      "outputs": [],
      "stateMutability": "nonpayable",
      "type": "function"
    }
  ],
  "bytecode": "0x60806040523480156200001157600080fd5b50604051620012c3380380620012c383398181016040528101906200003791906200025c565b620000576200004b6200011260201b60201c565b6200011a60201b60201c565b600073ffffffffffffffffffffffffffffffffffffffff168173ffffffffffffffffffffffffffffffffffffffff161415620000ca576040517f08c379a0000000000000000000000000000000000000000000000000000000008152600401620000c190620002ef565b60405180910390fd5b80600160006101000a81548173ffffffffffffffffffffffffffffffffffffffff021916908373ffffffffffffffffffffffffffffffffffffffff1602179055505062000311565b600033905090565b60008060009054906101000a900473ffffffffffffffffffffffffffffffffffffffff169050816000806101000a81548173ffffffffffffffffffffffffffffffffffffffff021916908373ffffffffffffffffffffffffffffffffffffffff1602179055508173ffffffffffffffffffffffffffffffffffffffff168173ffffffffffffffffffffffffffffffffffffffff167f8be0079c531659141344cd1fd0a4f28419497f9722a3daafe3b4186f6b6457e060405160405180910390a35050565b600080fd5b600073ffffffffffffffffffffffffffffffffffffffff82169050919050565b60006200021082620001e3565b9050919050565b6000620002248262000203565b9050919050565b620002368162000217565b81146200024257600080fd5b50565b60008151905062000256816200022b565b92915050565b600060208284031215620002755762000274620001de565b5b6000620002858482850162000245565b91505092915050565b600082825260208201905092915050565b7f54746f6b656e20697320746865207a65726f2061646472657373000000000000600082015250565b6000620002d7601a836200028e565b9150620002e4826200029f565b602082019050919050565b600060208201905081810360008301526200030a81620002c8565b9050919050565b610fa280620003216000396000f3fe60806040526004361061007f5760003560e01c8063a6f2ae3a1161004e578063a6f2ae3a1461012b578063ce56c45414610135578063f2fde38b1461015e578063fc0c546a146101875761008e565b806312065fe014610093578063715018a6146100be578063809154ec146100d55780638da5cb5b146101005761008e565b3661008e5761008c6101b2565b005b600080fd5b34801561009f57600080fd5b506100a86103d4565b6040516100b59190610910565b60405180910390f35b3480156100ca57600080fd5b506100d3610458565b005b3480156100e157600080fd5b506100ea6104e0565b6040516100f79190610910565b60405180910390f35b34801561010c57600080fd5b50610115610566565b604051610122919061096c565b60405180910390f35b6101336101b2565b005b34801561014157600080fd5b5061015c600480360381019061015791906109f6565b61058f565b005b34801561016a57600080fd5b5061018560048036038101906101809190610a62565b610709565b005b34801561019357600080fd5b5061019c610801565b6040516101a99190610aee565b60405180910390f35b60003490506000600160009054906101000a900473ffffffffffffffffffffffffffffffffffffffff1673ffffffffffffffffffffffffffffffffffffffff166370a08231306040518263ffffffff1660e01b8152600401610214919061096c565b602060405180830381865afa158015610231573d6000803e3d6000fd5b505050506040513d601f19601f820116820180604052508101906102559190610b1e565b90506000821161029a576040517f08c379a000000000000000000000000000000000000000000000000000000000815260040161029190610ba8565b60405180910390fd5b808211156102dd576040517f08c379a00000000000000000000000000000000000000000000000000000000081526004016102d490610c14565b60405180910390fd5b600160009054906101000a900473ffffffffffffffffffffffffffffffffffffffff1673ffffffffffffffffffffffffffffffffffffffff1663a9059cbb33846040518363ffffffff1660e01b815260040161033a929190610c34565b6020604051808303816000875af1158015610359573d6000803e3d6000fd5b505050506040513d601f19601f8201168201806040525081019061037d9190610c95565b5081600260008282546103909190610cf1565b925050819055507fc54c8cc1c7525b424ec71b685c00d9355581a280488018c22005332ceb2fd40682336040516103c8929190610d47565b60405180910390a15050565b60006103de61082b565b73ffffffffffffffffffffffffffffffffffffffff166103fc610566565b73ffffffffffffffffffffffffffffffffffffffff1614610452576040517f08c379a000000000000000000000000000000000000000000000000000000000815260040161044990610dbc565b60405180910390fd5b47905090565b61046061082b565b73ffffffffffffffffffffffffffffffffffffffff1661047e610566565b73ffffffffffffffffffffffffffffffffffffffff16146104d4576040517f08c379a00000000000000000000000000000000000000000000000000000000081526004016104cb90610dbc565b60405180910390fd5b6104de6000610833565b565b60006104ea61082b565b73ffffffffffffffffffffffffffffffffffffffff16610508610566565b73ffffffffffffffffffffffffffffffffffffffff161461055e576040517f08c379a000000000000000000000000000000000000000000000000000000000815260040161055590610dbc565b60405180910390fd5b600254905090565b60008060009054906101000a900473ffffffffffffffffffffffffffffffffffffffff16905090565b61059761082b565b73ffffffffffffffffffffffffffffffffffffffff166105b5610566565b73ffffffffffffffffffffffffffffffffffffffff161461060b576040517f08c379a000000000000000000000000000000000000000000000000000000000815260040161060290610dbc565b60405180910390fd5b8147101561064e576040517f08c379a000000000000000000000000000000000000000000000000000000000815260040161064590610e28565b60405180910390fd5b600073ffffffffffffffffffffffffffffffffffffffff168173ffffffffffffffffffffffffffffffffffffffff1614156106be576040517f08c379a00000000000000000000000000000000000000000000000000000000081526004016106b590610eba565b60405180910390fd5b8073ffffffffffffffffffffffffffffffffffffffff166108fc839081150290604051600060405180830381858888f19350505050158015610704573d6000803e3d6000fd5b505050565b61071161082b565b73ffffffffffffffffffffffffffffffffffffffff1661072f610566565b73ffffffffffffffffffffffffffffffffffffffff1614610785576040517f08c379a000000000000000000000000000000000000000000000000000000000815260040161077c90610dbc565b60405180910390fd5b600073ffffffffffffffffffffffffffffffffffffffff168173ffffffffffffffffffffffffffffffffffffffff1614156107f5576040517f08c379a00000000000000000000000000000000000000000000000000000000081526004016107ec90610f4c565b60405180910390fd5b6107fe81610833565b50565b6000600160009054906101000a900473ffffffffffffffffffffffffffffffffffffffff16905090565b600033905090565b60008060009054906101000a900473ffffffffffffffffffffffffffffffffffffffff169050816000806101000a81548173ffffffffffffffffffffffffffffffffffffffff021916908373ffffffffffffffffffffffffffffffffffffffff1602179055508173ffffffffffffffffffffffffffffffffffffffff168173ffffffffffffffffffffffffffffffffffffffff167f8be0079c531659141344cd1fd0a4f28419497f9722a3daafe3b4186f6b6457e060405160405180910390a35050565b6000819050919050565b61090a816108f7565b82525050565b60006020820190506109256000830184610901565b92915050565b600073ffffffffffffffffffffffffffffffffffffffff82169050919050565b60006109568261092b565b9050919050565b6109668161094b565b82525050565b6000602082019050610981600083018461095d565b92915050565b600080fd5b610995816108f7565b81146109a057600080fd5b50565b6000813590506109b28161098c565b92915050565b60006109c38261092b565b9050919050565b6109d3816109b8565b81146109de57600080fd5b50565b6000813590506109f0816109ca565b92915050565b60008060408385031215610a0d57610a0c610987565b5b6000610a1b858286016109a3565b9250506020610a2c858286016109e1565b9150509250929050565b610a3f8161094b565b8114610a4a57600080fd5b50565b600081359050610a5c81610a36565b92915050565b600060208284031215610a7857610a77610987565b5b6000610a8684828501610a4d565b91505092915050565b6000819050919050565b6000610ab4610aaf610aaa8461092b565b610a8f565b61092b565b9050919050565b6000610ac682610a99565b9050919050565b6000610ad882610abb565b9050919050565b610ae881610acd565b82525050565b6000602082019050610b036000830184610adf565b92915050565b600081519050610b188161098c565b92915050565b600060208284031215610b3457610b33610987565b5b6000610b4284828501610b09565b91505092915050565b600082825260208201905092915050565b7f596f75206e65656420746f2073656e6420736f6d652065746865720000000000600082015250565b6000610b92601b83610b4b565b9150610b9d82610b5c565b602082019050919050565b60006020820190508181036000830152610bc181610b85565b9050919050565b7f4e6f7420656e6f75676820746f6b656e7320696e207468652072657365727665600082015250565b6000610bfe602083610b4b565b9150610c0982610bc8565b602082019050919050565b60006020820190508181036000830152610c2d81610bf1565b9050919050565b6000604082019050610c49600083018561095d565b610c566020830184610901565b9392505050565b60008115159050919050565b610c7281610c5d565b8114610c7d57600080fd5b50565b600081519050610c8f81610c69565b92915050565b600060208284031215610cab57610caa610987565b5b6000610cb984828501610c80565b91505092915050565b7f4e487b7100000000000000000000000000000000000000000000000000000000600052601160045260246000fd5b6000610cfc826108f7565b9150610d07836108f7565b9250827fffffffffffffffffffffffffffffffffffffffffffffffffffffffffffffffff03821115610d3c57610d3b610cc2565b5b828201905092915050565b6000604082019050610d5c6000830185610901565b610d69602083018461095d565b9392505050565b7f4f776e61626c653a2063616c6c6572206973206e6f7420746865206f776e6572600082015250565b6000610da6602083610b4b565b9150610db182610d70565b602082019050919050565b60006020820190508181036000830152610dd581610d99565b9050919050565b7f4e6f7420656e6f7567682062616c616e63652070726573656e74000000000000600082015250565b6000610e12601a83610b4b565b9150610e1d82610ddc565b602082019050919050565b60006020820190508181036000830152610e4181610e05565b9050919050565b7f52656365697069656e742061646472657373206973207a65726f20616464726560008201527f7373000000000000000000000000000000000000000000000000000000000000602082015250565b6000610ea4602283610b4b565b9150610eaf82610e48565b604082019050919050565b60006020820190508181036000830152610ed381610e97565b9050919050565b7f4f776e61626c653a206e6577206f776e657220697320746865207a65726f206160008201527f6464726573730000000000000000000000000000000000000000000000000000602082015250565b6000610f36602683610b4b565b9150610f4182610eda565b604082019050919050565b60006020820190508181036000830152610f6581610f29565b905091905056fea2646970667358221220f6937764d2392dd97c693279ce4d198524d243d305f33217fac2f2f261f8007564736f6c634300080a0033",
  "immutableReferences": {},
  "source": "// SPDX-License-Identifier: MIT\r\npragma solidity >=0.4.22 <0.9.0;\r\n\r\nimport \"@openzeppelin/contracts/token/ERC20/IERC20.sol\";\r\nimport \"@openzeppelin/contracts/access/Ownable.sol\";\r\n\r\ncontract ERC20_Token_Sale_Contract is Ownable{\r\n\r\n    IERC20 private tokenContract;\r\n    uint private _etherRaised;\r\n\r\n    event Bought(uint _amount, address _buyer);\r\n    //event Sold(uint _amount, address _seller);\r\n\r\n    constructor(IERC20 _instanceAddress) {\r\n        require(address(_instanceAddress) != address(0), \"Ttoken is the zero address\");\r\n        tokenContract = _instanceAddress;\r\n    }\r\n\r\n    function token() public view returns (IERC20) {\r\n        return tokenContract;\r\n    }\r\n\r\n    function buy() public payable {\r\n        uint amount = msg.value;\r\n        uint256 exchangeBalance = tokenContract.balanceOf(address(this));\r\n        require(amount > 0, \"You need to send some ether\");\r\n        require(amount <= exchangeBalance, \"Not enough tokens in the reserve\");\r\n        tokenContract.transfer(msg.sender, amount);\r\n        _etherRaised += amount;\r\n        emit Bought(amount, msg.sender);\r\n    }\r\n\r\n    receive() external payable {\r\n        buy();\r\n    }\r\n\r\n    function getBalance() public view onlyOwner returns(uint) {\r\n        return address(this).balance;\r\n    }\r\n\r\n    function amountOfEtherRaied() public view onlyOwner returns(uint) {\r\n        return _etherRaised;\r\n    }\r\n\r\n    function withdrawEther(uint _amount, address payable _receipient) public onlyOwner {\r\n        require(address(this).balance >= _amount, \"Not enough balance present\");\r\n        require(_receipient != address(0), \"Receipient address is zero address\");\r\n        _receipient.transfer(_amount);\r\n    }\r\n}",
  "sourcePath": "E:\\solu_lab\\tasks\\nft-marketplace-contract\\contracts\\ERC20_Token_Sale_Contract.sol",
  "compiler": {
    "name": "solc",
    "version": "0.8.10+commit.fc410830.Emscripten.clang"
  },
  "schemaVersion": "3.4.4",
  "updatedAt": "2022-03-01T08:16:35.028Z",
  "networkType": "ethereum",
  "devdoc": {
    "kind": "dev",
    "methods": {
      "owner()": {
        "details": "Returns the address of the current owner."
      },
      "renounceOwnership()": {
        "details": "Leaves the contract without owner. It will not be possible to call `onlyOwner` functions anymore. Can only be called by the current owner. NOTE: Renouncing ownership will leave the contract without an owner, thereby removing any functionality that is only available to the owner."
      },
      "transferOwnership(address)": {
        "details": "Transfers ownership of the contract to a new account (`newOwner`). Can only be called by the current owner."
      }
    },
    "version": 1
  },
  "userdoc": {
    "kind": "user",
    "methods": {},
    "version": 1
  }
}