{
  "contractName": "NFT_Marketplace",
  "abi": [
    {
      "inputs": [
        {
          "internalType": "contract ERC20_Token_Contract",
          "name": "_tokenAddress",
          "type": "address"
        },
        {
          "internalType": "contract ERC721_NFT_Contract",
          "name": "_nftAddress",
          "type": "address"
        }
      ],
      "stateMutability": "nonpayable",
      "type": "constructor"
    },
    {
      "anonymous": false,
      "inputs": [
        {
          "indexed": false,
          "internalType": "uint256",
          "name": "_listedTokenId",
          "type": "uint256"
        },
        {
          "indexed": false,
          "internalType": "address",
          "name": "_previousOwner",
          "type": "address"
        },
        {
          "indexed": false,
          "internalType": "address",
          "name": "_newOwner",
          "type": "address"
        },
        {
          "indexed": false,
          "internalType": "uint256",
          "name": "_platformFeeGiven",
          "type": "uint256"
        },
        {
          "indexed": false,
          "internalType": "uint256",
          "name": "_royaltyGiven",
          "type": "uint256"
        },
        {
          "indexed": false,
          "internalType": "uint256",
          "name": "_soldAtPrice",
          "type": "uint256"
        }
      ],
      "name": "NFTHasBeenBought",
      "type": "event"
    },
    {
      "anonymous": false,
      "inputs": [
        {
          "indexed": false,
          "internalType": "uint256",
          "name": "_listedTokenId",
          "type": "uint256"
        }
      ],
      "name": "NFTHasBeenListed",
      "type": "event"
    },
    {
      "anonymous": false,
      "inputs": [
        {
          "indexed": false,
          "internalType": "uint256",
          "name": "_listedTokenId",
          "type": "uint256"
        },
        {
          "indexed": false,
          "internalType": "address",
          "name": "_previousOwner",
          "type": "address"
        },
        {
          "indexed": false,
          "internalType": "address",
          "name": "_newOwner",
          "type": "address"
        },
        {
          "indexed": false,
          "internalType": "uint256",
          "name": "_platformFeeGiven",
          "type": "uint256"
        },
        {
          "indexed": false,
          "internalType": "uint256",
          "name": "_royaltyGiven",
          "type": "uint256"
        },
        {
          "indexed": false,
          "internalType": "uint256",
          "name": "_soldAtPrice",
          "type": "uint256"
        }
      ],
      "name": "NFTHasBeenSold",
      "type": "event"
    },
    {
      "anonymous": false,
      "inputs": [
        {
          "indexed": false,
          "internalType": "uint256",
          "name": "_listedTokenId",
          "type": "uint256"
        },
        {
          "indexed": false,
          "internalType": "uint256",
          "name": "_oldPrice",
          "type": "uint256"
        },
        {
          "indexed": false,
          "internalType": "uint256",
          "name": "_newPrice",
          "type": "uint256"
        }
      ],
      "name": "updatedNFTPrice",
      "type": "event"
    },
    {
      "inputs": [
        {
          "internalType": "address",
          "name": "",
          "type": "address"
        },
        {
          "internalType": "address",
          "name": "",
          "type": "address"
        },
        {
          "internalType": "uint256",
          "name": "",
          "type": "uint256"
        },
        {
          "internalType": "bytes",
          "name": "",
          "type": "bytes"
        }
      ],
      "name": "onERC721Received",
      "outputs": [
        {
          "internalType": "bytes4",
          "name": "",
          "type": "bytes4"
        }
      ],
      "stateMutability": "nonpayable",
      "type": "function"
    },
    {
      "inputs": [
        {
          "internalType": "uint256",
          "name": "_tokenId",
          "type": "uint256"
        },
        {
          "internalType": "address[]",
          "name": "_royaltyOwners",
          "type": "address[]"
        },
        {
          "internalType": "uint256",
          "name": "_royaltyPercentage",
          "type": "uint256"
        },
        {
          "internalType": "uint256",
          "name": "_nftPrice",
          "type": "uint256"
        }
      ],
      "name": "listNFT",
      "outputs": [],
      "stateMutability": "nonpayable",
      "type": "function"
    },
    {
      "inputs": [
        {
          "internalType": "uint256",
          "name": "_tokenId",
          "type": "uint256"
        }
      ],
      "name": "viewListedNFT",
      "outputs": [
        {
          "components": [
            {
              "internalType": "address",
              "name": "owner",
              "type": "address"
            },
            {
              "internalType": "uint256",
              "name": "price",
              "type": "uint256"
            },
            {
              "internalType": "uint256",
              "name": "royaltyPercentage",
              "type": "uint256"
            },
            {
              "internalType": "address[]",
              "name": "royaltyOwners",
              "type": "address[]"
            },
            {
              "internalType": "bool",
              "name": "listed",
              "type": "bool"
            }
          ],
          "internalType": "struct NFT_Marketplace.listedNFT",
          "name": "_listedNFT",
          "type": "tuple"
        }
      ],
      "stateMutability": "view",
      "type": "function",
      "constant": true
    },
    {
      "inputs": [],
      "name": "getPlatformFeeOnSale",
      "outputs": [
        {
          "internalType": "string",
          "name": "_platformFee",
          "type": "string"
        }
      ],
      "stateMutability": "pure",
      "type": "function",
      "constant": true
    },
    {
      "inputs": [
        {
          "internalType": "uint256",
          "name": "_tokenId",
          "type": "uint256"
        }
      ],
      "name": "buyNFTFromMarket",
      "outputs": [],
      "stateMutability": "nonpayable",
      "type": "function"
    },
    {
      "inputs": [
        {
          "internalType": "uint256",
          "name": "_tokenId",
          "type": "uint256"
        }
      ],
      "name": "buyNFT",
      "outputs": [],
      "stateMutability": "nonpayable",
      "type": "function"
    },
    {
      "inputs": [
        {
          "internalType": "uint256",
          "name": "_tokenId",
          "type": "uint256"
        },
        {
          "internalType": "uint256",
          "name": "_price",
          "type": "uint256"
        }
      ],
      "name": "setNFTPrice",
      "outputs": [],
      "stateMutability": "nonpayable",
      "type": "function"
    },
    {
      "inputs": [
        {
          "internalType": "uint256",
          "name": "_tokenId",
          "type": "uint256"
        }
      ],
      "name": "sellNFT",
      "outputs": [],
      "stateMutability": "nonpayable",
      "type": "function"
    }
  ],
  "bytecode": "0x60806040523480156200001157600080fd5b50604051620032e4380380620032e4833981810160405281019062000037919062000183565b816000806101000a81548173ffffffffffffffffffffffffffffffffffffffff021916908373ffffffffffffffffffffffffffffffffffffffff16021790555080600160006101000a81548173ffffffffffffffffffffffffffffffffffffffff021916908373ffffffffffffffffffffffffffffffffffffffff1602179055505050620001ca565b600080fd5b600073ffffffffffffffffffffffffffffffffffffffff82169050919050565b6000620000f282620000c5565b9050919050565b60006200010682620000e5565b9050919050565b6200011881620000f9565b81146200012457600080fd5b50565b60008151905062000138816200010d565b92915050565b60006200014b82620000e5565b9050919050565b6200015d816200013e565b81146200016957600080fd5b50565b6000815190506200017d8162000152565b92915050565b600080604083850312156200019d576200019c620000c0565b5b6000620001ad8582860162000127565b9250506020620001c0858286016200016c565b9150509250929050565b61310a80620001da6000396000f3fe608060405234801561001057600080fd5b50600436106100885760003560e01c80637c3844ef1161005b5780637c3844ef14610113578063b45f754714610143578063e74065581461015f578063ee9cdfb31461017b57610088565b8063150b7a021461008d5780631668f4c8146100bd57806351ed8288146100db5780636f48d932146100f7575b600080fd5b6100a760048036038101906100a2919061222e565b610197565b6040516100b491906122ec565b60405180910390f35b6100c56101ab565b6040516100d2919061238f565b60405180910390f35b6100f560048036038101906100f091906123b1565b6101e8565b005b610111600480360381019061010c91906123b1565b610974565b005b61012d600480360381019061012891906123b1565b610f4b565b60405161013a919061253c565b60405180910390f35b61015d60048036038101906101589190612626565b6110f5565b005b610179600480360381019061017491906126a9565b61152e565b005b610195600480360381019061019091906123b1565b6116c3565b005b600063150b7a0260e01b9050949350505050565b60606040518060400160405280600381526020017f322e350000000000000000000000000000000000000000000000000000000000815250905090565b600115156002600083815260200190815260200160002060040160009054906101000a900460ff16151514610252576040517f08c379a000000000000000000000000000000000000000000000000000000000815260040161024990612735565b60405180910390fd5b600260008281526020019081526020016000206001015460008054906101000a900473ffffffffffffffffffffffffffffffffffffffff1673ffffffffffffffffffffffffffffffffffffffff1663dd62ed3e33306040518363ffffffff1660e01b81526004016102c4929190612764565b602060405180830381865afa1580156102e1573d6000803e3d6000fd5b505050506040513d601f19601f8201168201806040525081019061030591906127a2565b1015610346576040517f08c379a000000000000000000000000000000000000000000000000000000000815260040161033d90612867565b60405180910390fd5b3073ffffffffffffffffffffffffffffffffffffffff16600160009054906101000a900473ffffffffffffffffffffffffffffffffffffffff1673ffffffffffffffffffffffffffffffffffffffff1663081812fc836040518263ffffffff1660e01b81526004016103b89190612896565b602060405180830381865afa1580156103d5573d6000803e3d6000fd5b505050506040513d601f19601f820116820180604052508101906103f991906128c6565b73ffffffffffffffffffffffffffffffffffffffff161461044f576040517f08c379a000000000000000000000000000000000000000000000000000000000815260040161044690612965565b60405180910390fd5b60006b033b2e3c9fd0803ce800000061048c6019600260008681526020019081526020016000206001015461048491906129b4565b6103e8611e4c565b6104969190612a3d565b905060006b033b2e3c9fd0803ce80000006104e9600260008681526020019081526020016000206002015460026000878152602001908152602001600020600101546104e291906129b4565b6064611e4c565b6104f39190612a3d565b905060006002600085815260200190815260200160002060030180549050905060006b033b2e3c9fd0803ce800000061052c8484611e4c565b6105369190612a3d565b905060008054906101000a900473ffffffffffffffffffffffffffffffffffffffff1673ffffffffffffffffffffffffffffffffffffffff166323b872dd3330876040518463ffffffff1660e01b815260040161059593929190612a6e565b6020604051808303816000875af11580156105b4573d6000803e3d6000fd5b505050506040513d601f19601f820116820180604052508101906105d89190612ad1565b5060005b828110156106ea5760008054906101000a900473ffffffffffffffffffffffffffffffffffffffff1673ffffffffffffffffffffffffffffffffffffffff166323b872dd33600260008a8152602001908152602001600020600301848154811061064957610648612afe565b5b9060005260206000200160009054906101000a900473ffffffffffffffffffffffffffffffffffffffff16856040518463ffffffff1660e01b815260040161069393929190612a6e565b6020604051808303816000875af11580156106b2573d6000803e3d6000fd5b505050506040513d601f19601f820116820180604052508101906106d69190612ad1565b5080806106e290612b2d565b9150506105dc565b5060006002600087815260200190815260200160002060000160009054906101000a900473ffffffffffffffffffffffffffffffffffffffff16905060008486600260008a81526020019081526020016000206001015461074b9190612b76565b6107559190612b76565b905060008054906101000a900473ffffffffffffffffffffffffffffffffffffffff1673ffffffffffffffffffffffffffffffffffffffff166323b872dd3384846040518463ffffffff1660e01b81526004016107b493929190612a6e565b6020604051808303816000875af11580156107d3573d6000803e3d6000fd5b505050506040513d601f19601f820116820180604052508101906107f79190612ad1565b50600160009054906101000a900473ffffffffffffffffffffffffffffffffffffffff1673ffffffffffffffffffffffffffffffffffffffff166342842e0e83338a6040518463ffffffff1660e01b815260040161085793929190612a6e565b600060405180830381600087803b15801561087157600080fd5b505af1158015610885573d6000803e3d6000fd5b50505050336002600089815260200190815260200160002060000160006101000a81548173ffffffffffffffffffffffffffffffffffffffff021916908373ffffffffffffffffffffffffffffffffffffffff1602179055507fab1652246160e2628c160628b931d775df175472bcf95cf34c8f239219a68aaa8783600260008b815260200190815260200160002060000160009054906101000a900473ffffffffffffffffffffffffffffffffffffffff168989600260008e81526020019081526020016000206001015460405161096396959493929190612baa565b60405180910390a150505050505050565b600115156002600083815260200190815260200160002060040160009054906101000a900460ff161515146109de576040517f08c379a00000000000000000000000000000000000000000000000000000000081526004016109d590612735565b60405180910390fd5b600260008281526020019081526020016000206001015460008054906101000a900473ffffffffffffffffffffffffffffffffffffffff1673ffffffffffffffffffffffffffffffffffffffff1663dd62ed3e33306040518363ffffffff1660e01b8152600401610a50929190612764565b602060405180830381865afa158015610a6d573d6000803e3d6000fd5b505050506040513d601f19601f82011682018060405250810190610a9191906127a2565b1015610ad2576040517f08c379a0000000000000000000000000000000000000000000000000000000008152600401610ac990612867565b60405180910390fd5b60006b033b2e3c9fd0803ce8000000610b0f60196002600086815260200190815260200160002060010154610b0791906129b4565b6103e8611e4c565b610b199190612a3d565b905060006b033b2e3c9fd0803ce8000000610b6c60026000868152602001908152602001600020600201546002600087815260200190815260200160002060010154610b6591906129b4565b6064611e4c565b610b769190612a3d565b905060006002600085815260200190815260200160002060030180549050905060006b033b2e3c9fd0803ce8000000610baf8484611e4c565b610bb99190612a3d565b905060005b82811015610ccc5760008054906101000a900473ffffffffffffffffffffffffffffffffffffffff1673ffffffffffffffffffffffffffffffffffffffff166323b872dd33600260008a81526020019081526020016000206003018481548110610c2b57610c2a612afe565b5b9060005260206000200160009054906101000a900473ffffffffffffffffffffffffffffffffffffffff16856040518463ffffffff1660e01b8152600401610c7593929190612a6e565b6020604051808303816000875af1158015610c94573d6000803e3d6000fd5b505050506040513d601f19601f82011682018060405250810190610cb89190612ad1565b508080610cc490612b2d565b915050610bbe565b5060006002600087815260200190815260200160002060000160009054906101000a900473ffffffffffffffffffffffffffffffffffffffff1690506000846002600089815260200190815260200160002060010154610d2c9190612b76565b905060008054906101000a900473ffffffffffffffffffffffffffffffffffffffff1673ffffffffffffffffffffffffffffffffffffffff166323b872dd3384846040518463ffffffff1660e01b8152600401610d8b93929190612a6e565b6020604051808303816000875af1158015610daa573d6000803e3d6000fd5b505050506040513d601f19601f82011682018060405250810190610dce9190612ad1565b50600160009054906101000a900473ffffffffffffffffffffffffffffffffffffffff1673ffffffffffffffffffffffffffffffffffffffff166342842e0e83338a6040518463ffffffff1660e01b8152600401610e2e93929190612a6e565b600060405180830381600087803b158015610e4857600080fd5b505af1158015610e5c573d6000803e3d6000fd5b50505050336002600089815260200190815260200160002060000160006101000a81548173ffffffffffffffffffffffffffffffffffffffff021916908373ffffffffffffffffffffffffffffffffffffffff1602179055507fab1652246160e2628c160628b931d775df175472bcf95cf34c8f239219a68aaa8783600260008b815260200190815260200160002060000160009054906101000a900473ffffffffffffffffffffffffffffffffffffffff168989600260008e815260200190815260200160002060010154604051610f3a96959493929190612baa565b60405180910390a150505050505050565b610f53611f52565b600115156002600084815260200190815260200160002060040160009054906101000a900460ff16151514610fbd576040517f08c379a0000000000000000000000000000000000000000000000000000000008152600401610fb490612735565b60405180910390fd5b600260008381526020019081526020016000206040518060a00160405290816000820160009054906101000a900473ffffffffffffffffffffffffffffffffffffffff1673ffffffffffffffffffffffffffffffffffffffff1673ffffffffffffffffffffffffffffffffffffffff1681526020016001820154815260200160028201548152602001600382018054806020026020016040519081016040528092919081815260200182805480156110ca57602002820191906000526020600020905b8160009054906101000a900473ffffffffffffffffffffffffffffffffffffffff1673ffffffffffffffffffffffffffffffffffffffff1681526020019060010190808311611080575b505050505081526020016004820160009054906101000a900460ff1615151515815250509050919050565b600015156002600086815260200190815260200160002060040160009054906101000a900460ff1615151461115f576040517f08c379a000000000000000000000000000000000000000000000000000000000815260040161115690612c57565b60405180910390fd5b3373ffffffffffffffffffffffffffffffffffffffff16600160009054906101000a900473ffffffffffffffffffffffffffffffffffffffff1673ffffffffffffffffffffffffffffffffffffffff16636352211e866040518263ffffffff1660e01b81526004016111d19190612896565b602060405180830381865afa1580156111ee573d6000803e3d6000fd5b505050506040513d601f19601f8201168201806040525081019061121291906128c6565b73ffffffffffffffffffffffffffffffffffffffff1614611268576040517f08c379a000000000000000000000000000000000000000000000000000000000815260040161125f90612ce9565b60405180910390fd5b3073ffffffffffffffffffffffffffffffffffffffff16600160009054906101000a900473ffffffffffffffffffffffffffffffffffffffff1673ffffffffffffffffffffffffffffffffffffffff1663081812fc866040518263ffffffff1660e01b81526004016112da9190612896565b602060405180830381865afa1580156112f7573d6000803e3d6000fd5b505050506040513d601f19601f8201168201806040525081019061131b91906128c6565b73ffffffffffffffffffffffffffffffffffffffff1614611371576040517f08c379a000000000000000000000000000000000000000000000000000000000815260040161136890612d7b565b60405180910390fd5b806002600086815260200190815260200160002060010181905550600160009054906101000a900473ffffffffffffffffffffffffffffffffffffffff1673ffffffffffffffffffffffffffffffffffffffff16636352211e856040518263ffffffff1660e01b81526004016113e79190612896565b602060405180830381865afa158015611404573d6000803e3d6000fd5b505050506040513d601f19601f8201168201806040525081019061142891906128c6565b6002600086815260200190815260200160002060000160006101000a81548173ffffffffffffffffffffffffffffffffffffffff021916908373ffffffffffffffffffffffffffffffffffffffff160217905550816002600086815260200190815260200160002060020181905550826002600086815260200190815260200160002060030190805190602001906114c1929190611f99565b5060016002600086815260200190815260200160002060040160006101000a81548160ff0219169083151502179055507f777d686c886e218daecceca189a01fa574493e197df17a8e5df7400eb816454a846040516115209190612896565b60405180910390a150505050565b3373ffffffffffffffffffffffffffffffffffffffff16600160009054906101000a900473ffffffffffffffffffffffffffffffffffffffff1673ffffffffffffffffffffffffffffffffffffffff16636352211e846040518263ffffffff1660e01b81526004016115a09190612896565b602060405180830381865afa1580156115bd573d6000803e3d6000fd5b505050506040513d601f19601f820116820180604052508101906115e191906128c6565b73ffffffffffffffffffffffffffffffffffffffff1614611637576040517f08c379a000000000000000000000000000000000000000000000000000000000815260040161162e90612e0d565b60405180910390fd5b6000600260008481526020019081526020016000206001015490508160026000858152602001908152602001600020600101819055507f40c25d8a002625520789b7698ecf2c7af8d49afd4d0f14124e9ab48e1e46baa5838260026000878152602001908152602001600020600101546040516116b693929190612e2d565b60405180910390a1505050565b600115156002600083815260200190815260200160002060040160009054906101000a900460ff1615151461172d576040517f08c379a000000000000000000000000000000000000000000000000000000000815260040161172490612735565b60405180910390fd5b3373ffffffffffffffffffffffffffffffffffffffff166002600083815260200190815260200160002060000160009054906101000a900473ffffffffffffffffffffffffffffffffffffffff1673ffffffffffffffffffffffffffffffffffffffff16146117d1576040517f08c379a00000000000000000000000000000000000000000000000000000000081526004016117c890612eb0565b60405180910390fd5b3073ffffffffffffffffffffffffffffffffffffffff16600160009054906101000a900473ffffffffffffffffffffffffffffffffffffffff1673ffffffffffffffffffffffffffffffffffffffff1663081812fc836040518263ffffffff1660e01b81526004016118439190612896565b602060405180830381865afa158015611860573d6000803e3d6000fd5b505050506040513d601f19601f8201168201806040525081019061188491906128c6565b73ffffffffffffffffffffffffffffffffffffffff16146118da576040517f08c379a00000000000000000000000000000000000000000000000000000000081526004016118d190612965565b60405180910390fd5b600260008281526020019081526020016000206001015460008054906101000a900473ffffffffffffffffffffffffffffffffffffffff1673ffffffffffffffffffffffffffffffffffffffff166370a08231306040518263ffffffff1660e01b815260040161194a9190612ed0565b602060405180830381865afa158015611967573d6000803e3d6000fd5b505050506040513d601f19601f8201168201806040525081019061198b91906127a2565b10156119cc576040517f08c379a00000000000000000000000000000000000000000000000000000000081526004016119c390612f5d565b60405180910390fd5b60006b033b2e3c9fd0803ce8000000611a0960196002600086815260200190815260200160002060010154611a0191906129b4565b6103e8611e4c565b611a139190612a3d565b905060006b033b2e3c9fd0803ce8000000611a6660026000868152602001908152602001600020600201546002600087815260200190815260200160002060010154611a5f91906129b4565b6064611e4c565b611a709190612a3d565b905060006002600085815260200190815260200160002060030180549050905060006b033b2e3c9fd0803ce8000000611aa98484611e4c565b611ab39190612a3d565b905060005b82811015611bc45760008054906101000a900473ffffffffffffffffffffffffffffffffffffffff1673ffffffffffffffffffffffffffffffffffffffff1663a9059cbb600260008981526020019081526020016000206003018381548110611b2457611b23612afe565b5b9060005260206000200160009054906101000a900473ffffffffffffffffffffffffffffffffffffffff16846040518363ffffffff1660e01b8152600401611b6d929190612f7d565b6020604051808303816000875af1158015611b8c573d6000803e3d6000fd5b505050506040513d601f19601f82011682018060405250810190611bb09190612ad1565b508080611bbc90612b2d565b915050611ab8565b5060006002600087815260200190815260200160002060000160009054906101000a900473ffffffffffffffffffffffffffffffffffffffff16905060008486600260008a815260200190815260200160002060010154611c259190612b76565b611c2f9190612b76565b905060008054906101000a900473ffffffffffffffffffffffffffffffffffffffff1673ffffffffffffffffffffffffffffffffffffffff1663a9059cbb83836040518363ffffffff1660e01b8152600401611c8c929190612f7d565b6020604051808303816000875af1158015611cab573d6000803e3d6000fd5b505050506040513d601f19601f82011682018060405250810190611ccf9190612ad1565b50600160009054906101000a900473ffffffffffffffffffffffffffffffffffffffff1673ffffffffffffffffffffffffffffffffffffffff166342842e0e83308a6040518463ffffffff1660e01b8152600401611d2f93929190612a6e565b600060405180830381600087803b158015611d4957600080fd5b505af1158015611d5d573d6000803e3d6000fd5b50505050306002600089815260200190815260200160002060000160006101000a81548173ffffffffffffffffffffffffffffffffffffffff021916908373ffffffffffffffffffffffffffffffffffffffff1602179055507f2b6eaf3968088aaf7c2f5afcfce107e25bb841ca46830f6470442ec93d2b42878783600260008b815260200190815260200160002060000160009054906101000a900473ffffffffffffffffffffffffffffffffffffffff168989600260008e815260200190815260200160002060010154604051611e3b96959493929190612baa565b60405180910390a150505050505050565b600081611e7a611e68856b033b2e3c9fd0803ce8000000611e8c565b600285611e759190612a3d565b611ef9565b611e849190612a3d565b905092915050565b600080821480611eb4575082828385611ea591906129b4565b925082611eb29190612a3d565b145b611ef3576040517f08c379a0000000000000000000000000000000000000000000000000000000008152600401611eea90612ff2565b60405180910390fd5b92915050565b6000828284611f089190613012565b9150811015611f4c576040517f08c379a0000000000000000000000000000000000000000000000000000000008152600401611f43906130b4565b60405180910390fd5b92915050565b6040518060a00160405280600073ffffffffffffffffffffffffffffffffffffffff1681526020016000815260200160008152602001606081526020016000151581525090565b828054828255906000526020600020908101928215612012579160200282015b828111156120115782518260006101000a81548173ffffffffffffffffffffffffffffffffffffffff021916908373ffffffffffffffffffffffffffffffffffffffff16021790555091602001919060010190611fb9565b5b50905061201f9190612023565b5090565b5b8082111561203c576000816000905550600101612024565b5090565b6000604051905090565b600080fd5b600080fd5b600073ffffffffffffffffffffffffffffffffffffffff82169050919050565b600061207f82612054565b9050919050565b61208f81612074565b811461209a57600080fd5b50565b6000813590506120ac81612086565b92915050565b6000819050919050565b6120c5816120b2565b81146120d057600080fd5b50565b6000813590506120e2816120bc565b92915050565b600080fd5b600080fd5b6000601f19601f8301169050919050565b7f4e487b7100000000000000000000000000000000000000000000000000000000600052604160045260246000fd5b61213b826120f2565b810181811067ffffffffffffffff8211171561215a57612159612103565b5b80604052505050565b600061216d612040565b90506121798282612132565b919050565b600067ffffffffffffffff82111561219957612198612103565b5b6121a2826120f2565b9050602081019050919050565b82818337600083830152505050565b60006121d16121cc8461217e565b612163565b9050828152602081018484840111156121ed576121ec6120ed565b5b6121f88482856121af565b509392505050565b600082601f830112612215576122146120e8565b5b81356122258482602086016121be565b91505092915050565b600080600080608085870312156122485761224761204a565b5b60006122568782880161209d565b94505060206122678782880161209d565b9350506040612278878288016120d3565b925050606085013567ffffffffffffffff8111156122995761229861204f565b5b6122a587828801612200565b91505092959194509250565b60007fffffffff0000000000000000000000000000000000000000000000000000000082169050919050565b6122e6816122b1565b82525050565b600060208201905061230160008301846122dd565b92915050565b600081519050919050565b600082825260208201905092915050565b60005b83811015612341578082015181840152602081019050612326565b83811115612350576000848401525b50505050565b600061236182612307565b61236b8185612312565b935061237b818560208601612323565b612384816120f2565b840191505092915050565b600060208201905081810360008301526123a98184612356565b905092915050565b6000602082840312156123c7576123c661204a565b5b60006123d5848285016120d3565b91505092915050565b6123e781612074565b82525050565b6123f6816120b2565b82525050565b600081519050919050565b600082825260208201905092915050565b6000819050602082019050919050565b600061243483836123de565b60208301905092915050565b6000602082019050919050565b6000612458826123fc565b6124628185612407565b935061246d83612418565b8060005b8381101561249e5781516124858882612428565b975061249083612440565b925050600181019050612471565b5085935050505092915050565b60008115159050919050565b6124c0816124ab565b82525050565b600060a0830160008301516124de60008601826123de565b5060208301516124f160208601826123ed565b50604083015161250460408601826123ed565b506060830151848203606086015261251c828261244d565b915050608083015161253160808601826124b7565b508091505092915050565b6000602082019050818103600083015261255681846124c6565b905092915050565b600067ffffffffffffffff82111561257957612578612103565b5b602082029050602081019050919050565b600080fd5b60006125a261259d8461255e565b612163565b905080838252602082019050602084028301858111156125c5576125c461258a565b5b835b818110156125ee57806125da888261209d565b8452602084019350506020810190506125c7565b5050509392505050565b600082601f83011261260d5761260c6120e8565b5b813561261d84826020860161258f565b91505092915050565b600080600080608085870312156126405761263f61204a565b5b600061264e878288016120d3565b945050602085013567ffffffffffffffff81111561266f5761266e61204f565b5b61267b878288016125f8565b935050604061268c878288016120d3565b925050606061269d878288016120d3565b91505092959194509250565b600080604083850312156126c0576126bf61204a565b5b60006126ce858286016120d3565b92505060206126df858286016120d3565b9150509250929050565b7f546f6b656e206973206e6f74206c697374656400000000000000000000000000600082015250565b600061271f601383612312565b915061272a826126e9565b602082019050919050565b6000602082019050818103600083015261274e81612712565b9050919050565b61275e81612074565b82525050565b60006040820190506127796000830185612755565b6127866020830184612755565b9392505050565b60008151905061279c816120bc565b92915050565b6000602082840312156127b8576127b761204a565b5b60006127c68482850161278d565b91505092915050565b7f4e6f7420656e6f7567682066756e64732c2066756e6473206e65656420746f2060008201527f62652061737369676e656420696e2074686520616c6c6f776e636520666f722060208201527f746865206d61726b657420636f6e747261637400000000000000000000000000604082015250565b6000612851605383612312565b915061285c826127cf565b606082019050919050565b6000602082019050818103600083015261288081612844565b9050919050565b612890816120b2565b82525050565b60006020820190506128ab6000830184612887565b92915050565b6000815190506128c081612086565b92915050565b6000602082840312156128dc576128db61204a565b5b60006128ea848285016128b1565b91505092915050565b7f4d61726b6574706c616365206973206e6f7420617070726f76656420746f206860008201527f616e646c65207468697320746f6b656e00000000000000000000000000000000602082015250565b600061294f603083612312565b915061295a826128f3565b604082019050919050565b6000602082019050818103600083015261297e81612942565b9050919050565b7f4e487b7100000000000000000000000000000000000000000000000000000000600052601160045260246000fd5b60006129bf826120b2565b91506129ca836120b2565b9250817fffffffffffffffffffffffffffffffffffffffffffffffffffffffffffffffff0483118215151615612a0357612a02612985565b5b828202905092915050565b7f4e487b7100000000000000000000000000000000000000000000000000000000600052601260045260246000fd5b6000612a48826120b2565b9150612a53836120b2565b925082612a6357612a62612a0e565b5b828204905092915050565b6000606082019050612a836000830186612755565b612a906020830185612755565b612a9d6040830184612887565b949350505050565b612aae816124ab565b8114612ab957600080fd5b50565b600081519050612acb81612aa5565b92915050565b600060208284031215612ae757612ae661204a565b5b6000612af584828501612abc565b91505092915050565b7f4e487b7100000000000000000000000000000000000000000000000000000000600052603260045260246000fd5b6000612b38826120b2565b91507fffffffffffffffffffffffffffffffffffffffffffffffffffffffffffffffff821415612b6b57612b6a612985565b5b600182019050919050565b6000612b81826120b2565b9150612b8c836120b2565b925082821015612b9f57612b9e612985565b5b828203905092915050565b600060c082019050612bbf6000830189612887565b612bcc6020830188612755565b612bd96040830187612755565b612be66060830186612887565b612bf36080830185612887565b612c0060a0830184612887565b979650505050505050565b7f546f6b656e20697320616c7265616479206c6973746564000000000000000000600082015250565b6000612c41601783612312565b9150612c4c82612c0b565b602082019050919050565b60006020820190508181036000830152612c7081612c34565b9050919050565b7f4f6e6c79206f776e65722063616e206c6973742074686520746f6b656e206f6e60008201527f206d61726b6574706c6163650000000000000000000000000000000000000000602082015250565b6000612cd3602c83612312565b9150612cde82612c77565b604082019050919050565b60006020820190508181036000830152612d0281612cc6565b9050919050565b7f4d61726b6574706c616365206973206e6f7420617070726f76656420746f206c60008201527f697374207468697320746f6b656e000000000000000000000000000000000000602082015250565b6000612d65602e83612312565b9150612d7082612d09565b604082019050919050565b60006020820190508181036000830152612d9481612d58565b9050919050565b7f4f6e6c79206f776e65722063616e206368616e67652074686520746f6b656e2060008201527f7072696365206f6e20746865206d61726b6574706c6163650000000000000000602082015250565b6000612df7603883612312565b9150612e0282612d9b565b604082019050919050565b60006020820190508181036000830152612e2681612dea565b9050919050565b6000606082019050612e426000830186612887565b612e4f6020830185612887565b612e5c6040830184612887565b949350505050565b7f4f6e6c79206f776e65722063616e2073656c6c20746865206e66740000000000600082015250565b6000612e9a601b83612312565b9150612ea582612e64565b602082019050919050565b60006020820190508181036000830152612ec981612e8d565b9050919050565b6000602082019050612ee56000830184612755565b92915050565b7f4d61726b657420646f65736e2774206861766520656e6f7567682066756e647360008201527f20746f20627579207468697320746f6b656e0000000000000000000000000000602082015250565b6000612f47603283612312565b9150612f5282612eeb565b604082019050919050565b60006020820190508181036000830152612f7681612f3a565b9050919050565b6000604082019050612f926000830185612755565b612f9f6020830184612887565b9392505050565b7f64732d6d6174682d6d756c2d6f766572666c6f77000000000000000000000000600082015250565b6000612fdc601483612312565b9150612fe782612fa6565b602082019050919050565b6000602082019050818103600083015261300b81612fcf565b9050919050565b600061301d826120b2565b9150613028836120b2565b9250827fffffffffffffffffffffffffffffffffffffffffffffffffffffffffffffffff0382111561305d5761305c612985565b5b828201905092915050565b7f64732d6d6174682d6164642d6f766572666c6f77000000000000000000000000600082015250565b600061309e601483612312565b91506130a982613068565b602082019050919050565b600060208201905081810360008301526130cd81613091565b905091905056fea26469706673582212201d4aaf385567c899048c1d5f1e2b79273552e4b35290547209e65cee597b888b64736f6c634300080a0033",
  "immutableReferences": {},
  "source": "// SPDX-License-Identifier: MIT\r\npragma solidity >=0.4.22 <0.9.0;\r\n\r\nimport \"./ERC20_Token_Contract.sol\";\r\nimport \"./ERC721_NFT_Contract.sol\";\r\nimport \"@openzeppelin/contracts/token/ERC721/utils/ERC721Holder.sol\";\r\nimport \"./DSMath.sol\";\r\n\r\ncontract NFT_Marketplace is DSMath, ERC721Holder {\r\n    \r\n    ERC20_Token_Contract private tokenContract;\r\n    ERC721_NFT_Contract private nftContract;\r\n\r\n    struct listedNFT {\r\n        address owner;\r\n        uint price;\r\n        uint royaltyPercentage;\r\n        address[] royaltyOwners;\r\n        bool listed;\r\n    }\r\n    \r\n    mapping(uint => listedNFT) private listedNFTs;\r\n\r\n    event NFTHasBeenListed(uint _listedTokenId);\r\n    event NFTHasBeenBought(uint _listedTokenId, address _previousOwner, address _newOwner, uint _platformFeeGiven, uint _royaltyGiven, uint _soldAtPrice);\r\n    event updatedNFTPrice(uint _listedTokenId, uint _oldPrice, uint _newPrice);\r\n    event NFTHasBeenSold(uint _listedTokenId, address _previousOwner, address _newOwner, uint _platformFeeGiven, uint _royaltyGiven, uint _soldAtPrice);\r\n\r\n    constructor(ERC20_Token_Contract _tokenAddress, ERC721_NFT_Contract _nftAddress) {\r\n        tokenContract = _tokenAddress;\r\n        nftContract = _nftAddress;\r\n    }\r\n\r\n    function listNFT(uint _tokenId, address[] memory _royaltyOwners, uint _royaltyPercentage, uint _nftPrice) public {\r\n        require(listedNFTs[_tokenId].listed == false, \"Token is already listed\");\r\n        require(nftContract.ownerOf(_tokenId) == msg.sender, \"Only owner can list the token on marketplace\");\r\n        require(nftContract.getApproved(_tokenId) == address(this), \"Marketplace is not approved to list this token\");\r\n        listedNFTs[_tokenId].price = _nftPrice;\r\n        listedNFTs[_tokenId].owner = nftContract.ownerOf(_tokenId);\r\n        listedNFTs[_tokenId].royaltyPercentage = _royaltyPercentage;\r\n        listedNFTs[_tokenId].royaltyOwners = _royaltyOwners;\r\n        listedNFTs[_tokenId].listed = true;\r\n        emit NFTHasBeenListed(_tokenId);\r\n    }\r\n\r\n    function viewListedNFT(uint _tokenId) public view returns(listedNFT memory _listedNFT) {\r\n        require(listedNFTs[_tokenId].listed == true, \"Token is not listed\");\r\n        _listedNFT = listedNFTs[_tokenId];\r\n    }\r\n\r\n    function getPlatformFeeOnSale() public pure returns(string memory _platformFee) {\r\n        _platformFee = \"2.5\";\r\n    }\r\n\r\n    function buyNFTFromMarket(uint _tokenId) public {\r\n        require(listedNFTs[_tokenId].listed == true, \"Token is not listed\");\r\n        require(tokenContract.allowance(msg.sender, address(this)) >= listedNFTs[_tokenId].price, \"Not enough funds, funds need to be assigned in the allownce for the market contract\");\r\n        uint platformFeeOnTheSale = (rdiv((listedNFTs[_tokenId].price * 25), 1000)) / 10**27;\r\n        uint royaltyOnTheSale = (rdiv((listedNFTs[_tokenId].price * listedNFTs[_tokenId].royaltyPercentage), 100)) / 10**27;\r\n        uint noOfRoyaltyOwners = listedNFTs[_tokenId].royaltyOwners.length;\r\n        uint royaltyToEachOwner = (rdiv(royaltyOnTheSale, noOfRoyaltyOwners)) / 10**27;\r\n        for (uint i = 0; i < noOfRoyaltyOwners; i++) {\r\n            tokenContract.transferFrom(msg.sender, listedNFTs[_tokenId].royaltyOwners[i], royaltyToEachOwner);\r\n        }\r\n        address previousOwner = listedNFTs[_tokenId].owner;\r\n        uint amountToTransferToPreviousOwner = listedNFTs[_tokenId].price - royaltyOnTheSale;\r\n        tokenContract.transferFrom(msg.sender, previousOwner, amountToTransferToPreviousOwner);\r\n        nftContract.safeTransferFrom(previousOwner, msg.sender, _tokenId);\r\n        listedNFTs[_tokenId].owner = msg.sender;\r\n        emit NFTHasBeenBought(_tokenId, previousOwner, listedNFTs[_tokenId].owner, platformFeeOnTheSale, royaltyOnTheSale, listedNFTs[_tokenId].price);\r\n    }\r\n\r\n    function buyNFT(uint _tokenId) public {\r\n        require(listedNFTs[_tokenId].listed == true, \"Token is not listed\");\r\n        require(tokenContract.allowance(msg.sender, address(this)) >= listedNFTs[_tokenId].price, \"Not enough funds, funds need to be assigned in the allownce for the market contract\");\r\n        require(nftContract.getApproved(_tokenId) == address(this), \"Marketplace is not approved to handle this token\");\r\n        uint platformFeeOnTheSale = (rdiv((listedNFTs[_tokenId].price * 25), 1000)) / 10**27;\r\n        uint royaltyOnTheSale = (rdiv((listedNFTs[_tokenId].price * listedNFTs[_tokenId].royaltyPercentage), 100)) / 10**27;\r\n        uint noOfRoyaltyOwners = listedNFTs[_tokenId].royaltyOwners.length;\r\n        uint royaltyToEachOwner = (rdiv(royaltyOnTheSale, noOfRoyaltyOwners)) / 10**27;\r\n        tokenContract.transferFrom(msg.sender, address(this), platformFeeOnTheSale);\r\n        for (uint i = 0; i < noOfRoyaltyOwners; i++) {\r\n            tokenContract.transferFrom(msg.sender, listedNFTs[_tokenId].royaltyOwners[i], royaltyToEachOwner);\r\n        }\r\n        address previousOwner = listedNFTs[_tokenId].owner;\r\n        uint amountToTransferToPreviousOwner = ((listedNFTs[_tokenId].price - platformFeeOnTheSale) - royaltyOnTheSale);\r\n        tokenContract.transferFrom(msg.sender, previousOwner, amountToTransferToPreviousOwner);\r\n        nftContract.safeTransferFrom(previousOwner, msg.sender, _tokenId);\r\n        listedNFTs[_tokenId].owner = msg.sender;\r\n        emit NFTHasBeenBought(_tokenId, previousOwner, listedNFTs[_tokenId].owner, platformFeeOnTheSale, royaltyOnTheSale, listedNFTs[_tokenId].price);\r\n    }\r\n\r\n    function setNFTPrice(uint _tokenId, uint _price) public {\r\n        require(nftContract.ownerOf(_tokenId) == msg.sender, \"Only owner can change the token price on the marketplace\");\r\n        uint oldPrice = listedNFTs[_tokenId].price;\r\n        listedNFTs[_tokenId].price = _price;\r\n        emit updatedNFTPrice(_tokenId, oldPrice, listedNFTs[_tokenId].price);\r\n    }\r\n\r\n    function sellNFT(uint _tokenId) public {\r\n        require(listedNFTs[_tokenId].listed == true, \"Token is not listed\");\r\n        require(listedNFTs[_tokenId].owner == msg.sender, \"Only owner can sell the nft\");\r\n        require(nftContract.getApproved(_tokenId) == address(this), \"Marketplace is not approved to handle this token\");\r\n        require(tokenContract.balanceOf(address(this)) >= listedNFTs[_tokenId].price, \"Market doesn't have enough funds to buy this token\");\r\n        uint platformFeeOnTheSale = (rdiv((listedNFTs[_tokenId].price * 25), 1000)) / 10**27;\r\n        uint royaltyOnTheSale = (rdiv((listedNFTs[_tokenId].price * listedNFTs[_tokenId].royaltyPercentage), 100)) / 10**27;\r\n        uint noOfRoyaltyOwners = listedNFTs[_tokenId].royaltyOwners.length;\r\n        uint royaltyToEachOwner = (rdiv(royaltyOnTheSale, noOfRoyaltyOwners)) / 10**27;\r\n        for (uint i = 0; i < noOfRoyaltyOwners; i++) {\r\n            tokenContract.transfer(listedNFTs[_tokenId].royaltyOwners[i], royaltyToEachOwner);\r\n        }\r\n        address previousOwner = listedNFTs[_tokenId].owner;\r\n        uint amountToTransferToPreviousOwner = ((listedNFTs[_tokenId].price - platformFeeOnTheSale) - royaltyOnTheSale);\r\n        tokenContract.transfer(previousOwner, amountToTransferToPreviousOwner);\r\n        nftContract.safeTransferFrom(previousOwner, address(this), _tokenId);\r\n        listedNFTs[_tokenId].owner = address(this);\r\n        emit NFTHasBeenSold(_tokenId, previousOwner, listedNFTs[_tokenId].owner, platformFeeOnTheSale, royaltyOnTheSale, listedNFTs[_tokenId].price);\r\n    }\r\n}",
  "sourcePath": "E:\\solu_lab\\tasks\\nft-marketplace-contract\\contracts\\NFT_Marketplace.sol",
  "compiler": {
    "name": "solc",
    "version": "0.8.10+commit.fc410830.Emscripten.clang"
  },
  "schemaVersion": "3.4.4",
  "updatedAt": "2022-03-01T08:16:35.059Z",
  "networkType": "ethereum",
  "devdoc": {
    "kind": "dev",
    "methods": {
      "onERC721Received(address,address,uint256,bytes)": {
        "details": "See {IERC721Receiver-onERC721Received}. Always returns `IERC721Receiver.onERC721Received.selector`."
      }
    },
    "version": 1
  },
  "userdoc": {
    "kind": "user",
    "methods": {},
    "version": 1
  }
}